{
  "contractName": "FreelanceMarketplace",
  "abi": [
    {
      "inputs": [
        {
          "internalType": "uint256",
          "name": "",
          "type": "uint256"
        },
        {
          "internalType": "uint256",
          "name": "",
          "type": "uint256"
        }
      ],
      "name": "jobApplications",
      "outputs": [
        {
          "internalType": "address",
          "name": "applicant",
          "type": "address"
        },
        {
          "internalType": "string",
          "name": "name",
          "type": "string"
        },
        {
          "internalType": "string",
          "name": "previousWorkLink",
          "type": "string"
        },
        {
          "internalType": "string",
          "name": "projectLink",
          "type": "string"
        },
        {
          "internalType": "bool",
          "name": "isReviewed",
          "type": "bool"
        },
        {
          "internalType": "bool",
          "name": "isAccepted",
          "type": "bool"
        }
      ],
      "stateMutability": "view",
      "type": "function"
    },
    {
      "inputs": [
        {
          "internalType": "uint256",
          "name": "",
          "type": "uint256"
        }
      ],
      "name": "jobs",
      "outputs": [
        {
          "internalType": "address",
          "name": "jobPoster",
          "type": "address"
        },
        {
          "internalType": "string",
          "name": "title",
          "type": "string"
        },
        {
          "internalType": "string",
          "name": "shortDescription",
          "type": "string"
        },
        {
          "internalType": "string",
          "name": "detailedDescription",
          "type": "string"
        },
        {
          "internalType": "uint256",
          "name": "budget",
          "type": "uint256"
        },
        {
          "internalType": "uint256",
          "name": "deadline",
          "type": "uint256"
        },
        {
          "internalType": "string",
          "name": "image",
          "type": "string"
        },
        {
          "internalType": "string",
          "name": "workUrl",
          "type": "string"
        },
        {
          "internalType": "bool",
          "name": "isCompleted",
          "type": "bool"
        },
        {
          "internalType": "bool",
          "name": "isApproved",
          "type": "bool"
        }
      ],
      "stateMutability": "view",
      "type": "function"
    },
    {
      "inputs": [],
      "name": "numberOfJobs",
      "outputs": [
        {
          "internalType": "uint256",
          "name": "",
          "type": "uint256"
        }
      ],
      "stateMutability": "view",
      "type": "function"
    },
    {
      "stateMutability": "payable",
      "type": "receive"
    },
    {
      "inputs": [
        {
          "internalType": "string",
          "name": "_title",
          "type": "string"
        },
        {
          "internalType": "string",
          "name": "_shortDescription",
          "type": "string"
        },
        {
          "internalType": "string",
          "name": "_detailedDescription",
          "type": "string"
        },
        {
          "internalType": "uint256",
          "name": "_budget",
          "type": "uint256"
        },
        {
          "internalType": "uint256",
          "name": "_deadline",
          "type": "uint256"
        },
        {
          "internalType": "string",
          "name": "_image",
          "type": "string"
        },
        {
          "internalType": "string",
          "name": "_workUrl",
          "type": "string"
        }
      ],
      "name": "postJob",
      "outputs": [
        {
          "internalType": "uint256",
          "name": "",
          "type": "uint256"
        }
      ],
      "stateMutability": "payable",
      "type": "function"
    },
    {
      "inputs": [
        {
          "internalType": "uint256",
          "name": "_jobId",
          "type": "uint256"
        },
        {
          "internalType": "string",
          "name": "_name",
          "type": "string"
        },
        {
          "internalType": "string",
          "name": "_previousWorkLink",
          "type": "string"
        },
        {
          "internalType": "string",
          "name": "_projectLink",
          "type": "string"
        }
      ],
      "name": "applyForJob",
      "outputs": [],
      "stateMutability": "nonpayable",
      "type": "function"
    },
    {
      "inputs": [
        {
          "internalType": "uint256",
          "name": "_jobId",
          "type": "uint256"
        },
        {
          "internalType": "uint256",
          "name": "_applicationIndex",
          "type": "uint256"
        },
        {
          "internalType": "bool",
          "name": "_isAccepted",
          "type": "bool"
        },
        {
          "internalType": "string",
          "name": "_workUrl",
          "type": "string"
        }
      ],
      "name": "reviewWork",
      "outputs": [],
      "stateMutability": "nonpayable",
      "type": "function"
    },
    {
      "inputs": [],
      "name": "getJobs",
      "outputs": [
        {
          "components": [
            {
              "internalType": "address",
              "name": "jobPoster",
              "type": "address"
            },
            {
              "internalType": "string",
              "name": "title",
              "type": "string"
            },
            {
              "internalType": "string",
              "name": "shortDescription",
              "type": "string"
            },
            {
              "internalType": "string",
              "name": "detailedDescription",
              "type": "string"
            },
            {
              "internalType": "uint256",
              "name": "budget",
              "type": "uint256"
            },
            {
              "internalType": "uint256",
              "name": "deadline",
              "type": "uint256"
            },
            {
              "internalType": "string",
              "name": "image",
              "type": "string"
            },
            {
              "internalType": "string",
              "name": "workUrl",
              "type": "string"
            },
            {
              "internalType": "bool",
              "name": "isCompleted",
              "type": "bool"
            },
            {
              "internalType": "bool",
              "name": "isApproved",
              "type": "bool"
            },
            {
              "internalType": "address[]",
              "name": "applicants",
              "type": "address[]"
            },
            {
              "internalType": "uint256[]",
              "name": "applicationIndexes",
              "type": "uint256[]"
            }
          ],
          "internalType": "struct FreelanceMarketplace.Job[]",
          "name": "",
          "type": "tuple[]"
        }
      ],
      "stateMutability": "view",
      "type": "function"
    },
    {
      "inputs": [
        {
          "internalType": "uint256",
          "name": "_jobId",
          "type": "uint256"
        }
      ],
      "name": "getApplications",
      "outputs": [
        {
          "components": [
            {
              "internalType": "address",
              "name": "applicant",
              "type": "address"
            },
            {
              "internalType": "string",
              "name": "name",
              "type": "string"
            },
            {
              "internalType": "string",
              "name": "previousWorkLink",
              "type": "string"
            },
            {
              "internalType": "string",
              "name": "projectLink",
              "type": "string"
            },
            {
              "internalType": "bool",
              "name": "isReviewed",
              "type": "bool"
            },
            {
              "internalType": "bool",
              "name": "isAccepted",
              "type": "bool"
            }
          ],
          "internalType": "struct FreelanceMarketplace.Application[]",
          "name": "",
          "type": "tuple[]"
        }
      ],
      "stateMutability": "view",
      "type": "function"
    },
    {
      "inputs": [
        {
          "internalType": "address",
          "name": "_jobPoster",
          "type": "address"
        }
      ],
      "name": "getJobsByPoster",
      "outputs": [
        {
          "components": [
            {
              "internalType": "address",
              "name": "jobPoster",
              "type": "address"
            },
            {
              "internalType": "string",
              "name": "title",
              "type": "string"
            },
            {
              "internalType": "string",
              "name": "shortDescription",
              "type": "string"
            },
            {
              "internalType": "string",
              "name": "detailedDescription",
              "type": "string"
            },
            {
              "internalType": "uint256",
              "name": "budget",
              "type": "uint256"
            },
            {
              "internalType": "uint256",
              "name": "deadline",
              "type": "uint256"
            },
            {
              "internalType": "string",
              "name": "image",
              "type": "string"
            },
            {
              "internalType": "string",
              "name": "workUrl",
              "type": "string"
            },
            {
              "internalType": "bool",
              "name": "isCompleted",
              "type": "bool"
            },
            {
              "internalType": "bool",
              "name": "isApproved",
              "type": "bool"
            },
            {
              "internalType": "address[]",
              "name": "applicants",
              "type": "address[]"
            },
            {
              "internalType": "uint256[]",
              "name": "applicationIndexes",
              "type": "uint256[]"
            }
          ],
          "internalType": "struct FreelanceMarketplace.Job[]",
          "name": "",
          "type": "tuple[]"
        }
      ],
      "stateMutability": "view",
      "type": "function"
    },
    {
      "inputs": [
        {
          "internalType": "address",
          "name": "_applicant",
          "type": "address"
        }
      ],
      "name": "getAppliedJobs",
      "outputs": [
        {
          "components": [
            {
              "internalType": "address",
              "name": "jobPoster",
              "type": "address"
            },
            {
              "internalType": "string",
              "name": "title",
              "type": "string"
            },
            {
              "internalType": "string",
              "name": "shortDescription",
              "type": "string"
            },
            {
              "internalType": "string",
              "name": "detailedDescription",
              "type": "string"
            },
            {
              "internalType": "uint256",
              "name": "budget",
              "type": "uint256"
            },
            {
              "internalType": "uint256",
              "name": "deadline",
              "type": "uint256"
            },
            {
              "internalType": "string",
              "name": "image",
              "type": "string"
            },
            {
              "internalType": "string",
              "name": "workUrl",
              "type": "string"
            },
            {
              "internalType": "bool",
              "name": "isCompleted",
              "type": "bool"
            },
            {
              "internalType": "bool",
              "name": "isApproved",
              "type": "bool"
            },
            {
              "internalType": "address[]",
              "name": "applicants",
              "type": "address[]"
            },
            {
              "internalType": "uint256[]",
              "name": "applicationIndexes",
              "type": "uint256[]"
            }
          ],
          "internalType": "struct FreelanceMarketplace.Job[]",
          "name": "",
          "type": "tuple[]"
        }
      ],
      "stateMutability": "view",
      "type": "function"
    },
    {
      "inputs": [
        {
          "internalType": "address",
          "name": "_applicant",
          "type": "address"
        }
      ],
      "name": "getAppliedJobsWithStatus",
      "outputs": [
        {
          "components": [
            {
              "internalType": "address",
              "name": "jobPoster",
              "type": "address"
            },
            {
              "internalType": "string",
              "name": "title",
              "type": "string"
            },
            {
              "internalType": "string",
              "name": "shortDescription",
              "type": "string"
            },
            {
              "internalType": "string",
              "name": "detailedDescription",
              "type": "string"
            },
            {
              "internalType": "uint256",
              "name": "budget",
              "type": "uint256"
            },
            {
              "internalType": "uint256",
              "name": "deadline",
              "type": "uint256"
            },
            {
              "internalType": "string",
              "name": "image",
              "type": "string"
            },
            {
              "internalType": "string",
              "name": "workUrl",
              "type": "string"
            },
            {
              "internalType": "bool",
              "name": "isCompleted",
              "type": "bool"
            },
            {
              "internalType": "bool",
              "name": "isApproved",
              "type": "bool"
            },
            {
              "internalType": "address[]",
              "name": "applicants",
              "type": "address[]"
            },
            {
              "internalType": "uint256[]",
              "name": "applicationIndexes",
              "type": "uint256[]"
            }
          ],
          "internalType": "struct FreelanceMarketplace.Job[]",
          "name": "",
          "type": "tuple[]"
        },
        {
          "internalType": "bool[]",
          "name": "",
          "type": "bool[]"
        },
        {
          "internalType": "bool[]",
          "name": "",
          "type": "bool[]"
        },
        {
          "internalType": "uint256[]",
          "name": "",
          "type": "uint256[]"
        }
      ],
      "stateMutability": "view",
      "type": "function"
    },
    {
      "inputs": [
        {
          "internalType": "uint256",
          "name": "jobId",
          "type": "uint256"
        }
      ],
      "name": "getJobBudget",
      "outputs": [
        {
          "internalType": "uint256",
          "name": "",
          "type": "uint256"
        }
      ],
      "stateMutability": "view",
      "type": "function"
    },
    {
      "inputs": [
        {
          "internalType": "uint256",
          "name": "_jobId",
          "type": "uint256"
        },
        {
          "internalType": "uint256",
          "name": "_applicationIndex",
          "type": "uint256"
        }
      ],
      "name": "sendPaymentToApplicant",
      "outputs": [],
      "stateMutability": "payable",
      "type": "function"
    },
    {
      "inputs": [
        {
          "internalType": "uint256",
          "name": "_jobId",
          "type": "uint256"
        },
        {
          "internalType": "string",
          "name": "_title",
          "type": "string"
        },
        {
          "internalType": "string",
          "name": "_shortDescription",
          "type": "string"
        },
        {
          "internalType": "string",
          "name": "_detailedDescription",
          "type": "string"
        },
        {
          "internalType": "uint256",
          "name": "_budget",
          "type": "uint256"
        },
        {
          "internalType": "uint256",
          "name": "_deadline",
          "type": "uint256"
        },
        {
          "internalType": "string",
          "name": "_image",
          "type": "string"
        },
        {
          "internalType": "string",
          "name": "_workUrl",
          "type": "string"
        }
      ],
      "name": "editJob",
      "outputs": [],
      "stateMutability": "nonpayable",
      "type": "function"
    }
  ],
  "bytecode": "0x6080604052600060025534801561001557600080fd5b50613582806100256000396000f3fe6080604052600436106100e15760003560e01c80639bc1948f1161007f578063ce87ce1f11610059578063ce87ce1f14610261578063d3e8a57e14610277578063dc8ba6b914610297578063ead39a11146102c757600080fd5b80639bc1948f146101f4578063bc8c937d14610214578063ce26ae851461024157600080fd5b80635599cf9e116100bb5780635599cf9e1461017f57806368581ebd1461019f57806370569de8146101c157806397ad3242146101d457600080fd5b8063024fdab8146100ed578063180aedf314610102578063362543a91461014157600080fd5b366100e857005b600080fd5b6101006100fb366004612afd565b6102f9565b005b34801561010e57600080fd5b5061012261011d366004612b1f565b610551565b6040516101389a99989796959493929190612b7e565b60405180910390f35b34801561014d57600080fd5b5061017161015c366004612b1f565b60009081526020819052604090206004015490565b604051908152602001610138565b34801561018b57600080fd5b5061010061019a366004612cc2565b610856565b3480156101ab57600080fd5b506101b4610a3c565b6040516101389190612f76565b6101716101cf366004612f90565b610ed2565b3480156101e057600080fd5b506101006101ef366004613074565b611002565b34801561020057600080fd5b5061010061020f3660046130db565b611269565b34801561022057600080fd5b5061023461022f366004612b1f565b6113d2565b6040516101389190613160565b34801561024d57600080fd5b506101b461025c36600461322f565b611639565b34801561026d57600080fd5b5061017160025481565b34801561028357600080fd5b506101b461029236600461322f565b611bfd565b3480156102a357600080fd5b506102b76102b236600461322f565b61210b565b604051610138949392919061328a565b3480156102d357600080fd5b506102e76102e2366004612afd565b612891565b604051610138969594939291906132e2565b60025482106103235760405162461bcd60e51b815260040161031a90613347565b60405180910390fd5b600082815260016020526040902054811061037c5760405162461bcd60e51b8152602060048201526019602482015278092dcecc2d8d2c840c2e0e0d8d2c6c2e8d2dedc40d2dcc8caf603b1b604482015260640161031a565b600082815260208181526040808320600190925282208054919291849081106103a7576103a761336f565b60009182526020909120835460059092020191506001600160a01b031633146104125760405162461bcd60e51b815260206004820181905260248201527f4f6e6c79206a6f6220706f737465722063616e2073656e64207061796d656e74604482015260640161031a565b6004810154610100900460ff1661046b5760405162461bcd60e51b815260206004820152601b60248201527f4170706c69636174696f6e206973206e6f742061636365707465640000000000604482015260640161031a565b6004820154806104b65760405162461bcd60e51b8152602060048201526016602482015275125b9d985b1a59081c185e5b595b9d08185b5bdd5b9d60521b604482015260640161031a565b81546040516000916001600160a01b03169083908381818185875af1925050503d8060008114610502576040519150601f19603f3d011682016040523d82523d6000602084013e610507565b606091505b50509050806105495760405162461bcd60e51b815260206004820152600e60248201526d14185e5b595b9d0819985a5b195960921b604482015260640161031a565b505050505050565b600060208190529081526040902080546001820180546001600160a01b03909216929161057d90613385565b80601f01602080910402602001604051908101604052809291908181526020018280546105a990613385565b80156105f65780601f106105cb576101008083540402835291602001916105f6565b820191906000526020600020905b8154815290600101906020018083116105d957829003601f168201915b50505050509080600201805461060b90613385565b80601f016020809104026020016040519081016040528092919081815260200182805461063790613385565b80156106845780601f1061065957610100808354040283529160200191610684565b820191906000526020600020905b81548152906001019060200180831161066757829003601f168201915b50505050509080600301805461069990613385565b80601f01602080910402602001604051908101604052809291908181526020018280546106c590613385565b80156107125780601f106106e757610100808354040283529160200191610712565b820191906000526020600020905b8154815290600101906020018083116106f557829003601f168201915b50505050509080600401549080600501549080600601805461073390613385565b80601f016020809104026020016040519081016040528092919081815260200182805461075f90613385565b80156107ac5780601f10610781576101008083540402835291602001916107ac565b820191906000526020600020905b81548152906001019060200180831161078f57829003601f168201915b5050505050908060070180546107c190613385565b80601f01602080910402602001604051908101604052809291908181526020018280546107ed90613385565b801561083a5780601f1061080f5761010080835404028352916020019161083a565b820191906000526020600020905b81548152906001019060200180831161081d57829003601f168201915b5050506008909301549192505060ff808216916101009004168a565b60025488106108775760405162461bcd60e51b815260040161031a90613347565b600088815260208190526040902080546001600160a01b031633146108e85760405162461bcd60e51b815260206004820152602160248201527f4f6e6c79206a6f6220706f737465722063616e20656469742074686973206a6f6044820152603160f91b606482015260840161031a565b600881015460ff1615801561090757506008810154610100900460ff16155b6109625760405162461bcd60e51b815260206004820152602660248201527f43616e6e6f74206564697420636f6d706c65746564206f7220617070726f766560448201526564206a6f627360d01b606482015260840161031a565b66038d7ea4c680008510156109895760405162461bcd60e51b815260040161031a906133b9565b4284116109d85760405162461bcd60e51b815260206004820152601e60248201527f446561646c696e65206d75737420626520696e20746865206675747572650000604482015260640161031a565b600181016109e68982613445565b50600281016109f58882613445565b5060038101610a048782613445565b50600481018590556005810184905560068101610a218482613445565b5060078101610a308382613445565b50505050505050505050565b606060006002546001600160401b03811115610a5a57610a5a612c20565b604051908082528060200260200182016040528015610a9357816020015b610a80612a8f565b815260200190600190039081610a785790505b50905060005b600254811015610ecc57600081815260208181526040918290208251610180810190935280546001600160a01b031683526001810180549192840191610ade90613385565b80601f0160208091040260200160405190810160405280929190818152602001828054610b0a90613385565b8015610b575780601f10610b2c57610100808354040283529160200191610b57565b820191906000526020600020905b815481529060010190602001808311610b3a57829003601f168201915b50505050508152602001600282018054610b7090613385565b80601f0160208091040260200160405190810160405280929190818152602001828054610b9c90613385565b8015610be95780601f10610bbe57610100808354040283529160200191610be9565b820191906000526020600020905b815481529060010190602001808311610bcc57829003601f168201915b50505050508152602001600382018054610c0290613385565b80601f0160208091040260200160405190810160405280929190818152602001828054610c2e90613385565b8015610c7b5780601f10610c5057610100808354040283529160200191610c7b565b820191906000526020600020905b815481529060010190602001808311610c5e57829003601f168201915b505050505081526020016004820154815260200160058201548152602001600682018054610ca890613385565b80601f0160208091040260200160405190810160405280929190818152602001828054610cd490613385565b8015610d215780601f10610cf657610100808354040283529160200191610d21565b820191906000526020600020905b815481529060010190602001808311610d0457829003601f168201915b50505050508152602001600782018054610d3a90613385565b80601f0160208091040260200160405190810160405280929190818152602001828054610d6690613385565b8015610db35780601f10610d8857610100808354040283529160200191610db3565b820191906000526020600020905b815481529060010190602001808311610d9657829003601f168201915b5050509183525050600882015460ff80821615156020808501919091526101009092041615156040808401919091526009840180548251818502810185019093528083526060909401939192909190830182828015610e3b57602002820191906000526020600020905b81546001600160a01b03168152600190910190602001808311610e1d575b50505050508152602001600a8201805480602002602001604051908101604052809291908181526020018280548015610e9357602002820191906000526020600020905b815481526020019060010190808311610e7f575b505050505081525050828281518110610eae57610eae61336f565b60200260200101819052508080610ec49061351a565b915050610a99565b50919050565b600066038d7ea4c68000851015610efb5760405162461bcd60e51b815260040161031a906133b9565b428411610f4a5760405162461bcd60e51b815260206004820152601e60248201527f446561646c696e65206d75737420626520696e20746865206675747572650000604482015260640161031a565b600254600090815260208190526040902080546001600160a01b0319163317815560018101610f798a82613445565b5060028101610f888982613445565b5060038101610f978882613445565b50600481018690556005810185905560068101610fb48582613445565b5060078101610fc38482613445565b5060088101805461ffff1916905560028054906000610fe18361351a565b91905055506001600254610ff59190613533565b9998505050505050505050565b60025484106110235760405162461bcd60e51b815260040161031a90613347565b600084815260016020526040902054831061107c5760405162461bcd60e51b8152602060048201526019602482015278092dcecc2d8d2c840c2e0e0d8d2c6c2e8d2dedc40d2dcc8caf603b1b604482015260640161031a565b6000848152602081905260409020546001600160a01b031633146110e25760405162461bcd60e51b815260206004820152601a60248201527f4f6e6c79206a6f6220706f737465722063616e20726576696577000000000000604482015260640161031a565b60008481526001602052604081208054859081106111025761110261336f565b60009182526020909120600590910201600481015490915060ff161561116a5760405162461bcd60e51b815260206004820152601c60248201527f4170706c69636174696f6e20616c726561647920726576696577656400000000604482015260640161031a565b821561125557600085815260208190526040902060070161118b8382613445565b5060008581526020819052604080822060088101805461ffff19166101011790556004848101805461010061ff0019909116179055845491015491516001600160a01b0390911691908381818185875af1925050503d806000811461120c576040519150601f19603f3d011682016040523d82523d6000602084013e611211565b606091505b50509050806112535760405162461bcd60e51b815260206004820152600e60248201526d14185e5b595b9d0819985a5b195960921b604482015260640161031a565b505b600401805460ff1916600117905550505050565b600254841061128a5760405162461bcd60e51b815260040161031a90613347565b6040805160c08101825233815260208082018681528284018690526060830185905260006080840181905260a08401819052888152600180845294812080548087018255908252929020835160059093020180546001600160a01b0319166001600160a01b0390931692909217825551919283929082019061130c9082613445565b50604082015160028201906113219082613445565b50606082015160038201906113369082613445565b5060808201516004909101805460a09093015115156101000261ff00199215159290921661ffff1990931692909217179055600085815260208181526040808320600981018054600181810183559186528486200180546001600160a01b0319163317905589855292839052922054600a909201916113b59190613533565b815460018101835560009283526020909220909101555050505050565b606060016000838152602001908152602001600020805480602002602001604051908101604052809291908181526020016000905b8282101561162e5760008481526020908190206040805160c081019091526005850290910180546001600160a01b03168252600181018054929391929184019161145090613385565b80601f016020809104026020016040519081016040528092919081815260200182805461147c90613385565b80156114c95780601f1061149e576101008083540402835291602001916114c9565b820191906000526020600020905b8154815290600101906020018083116114ac57829003601f168201915b505050505081526020016002820180546114e290613385565b80601f016020809104026020016040519081016040528092919081815260200182805461150e90613385565b801561155b5780601f106115305761010080835404028352916020019161155b565b820191906000526020600020905b81548152906001019060200180831161153e57829003601f168201915b5050505050815260200160038201805461157490613385565b80601f01602080910402602001604051908101604052809291908181526020018280546115a090613385565b80156115ed5780601f106115c2576101008083540402835291602001916115ed565b820191906000526020600020905b8154815290600101906020018083116115d057829003601f168201915b50505091835250506004919091015460ff80821615156020808501919091526101009092041615156040909201919091529082526001929092019101611407565b505050509050919050565b60606000805b6002548110156116e05760005b6000828152600160205260409020548110156116cd57600082815260016020526040902080546001600160a01b03871691908390811061168e5761168e61336f565b60009182526020909120600590910201546001600160a01b0316036116bb57826116b78161351a565b9350505b806116c58161351a565b91505061164c565b50806116d88161351a565b91505061163f565b506000816001600160401b038111156116fb576116fb612c20565b60405190808252806020026020018201604052801561173457816020015b611721612a8f565b8152602001906001900390816117195790505b5090506000805b600254811015611bf35760005b600082815260016020526040902054811015611be057600082815260016020526040902080546001600160a01b03891691908390811061178a5761178a61336f565b60009182526020909120600590910201546001600160a01b031603611bce57600082815260208181526040918290208251610180810190935280546001600160a01b0316835260018101805491928401916117e490613385565b80601f016020809104026020016040519081016040528092919081815260200182805461181090613385565b801561185d5780601f106118325761010080835404028352916020019161185d565b820191906000526020600020905b81548152906001019060200180831161184057829003601f168201915b5050505050815260200160028201805461187690613385565b80601f01602080910402602001604051908101604052809291908181526020018280546118a290613385565b80156118ef5780601f106118c4576101008083540402835291602001916118ef565b820191906000526020600020905b8154815290600101906020018083116118d257829003601f168201915b5050505050815260200160038201805461190890613385565b80601f016020809104026020016040519081016040528092919081815260200182805461193490613385565b80156119815780601f1061195657610100808354040283529160200191611981565b820191906000526020600020905b81548152906001019060200180831161196457829003601f168201915b5050505050815260200160048201548152602001600582015481526020016006820180546119ae90613385565b80601f01602080910402602001604051908101604052809291908181526020018280546119da90613385565b8015611a275780601f106119fc57610100808354040283529160200191611a27565b820191906000526020600020905b815481529060010190602001808311611a0a57829003601f168201915b50505050508152602001600782018054611a4090613385565b80601f0160208091040260200160405190810160405280929190818152602001828054611a6c90613385565b8015611ab95780601f10611a8e57610100808354040283529160200191611ab9565b820191906000526020600020905b815481529060010190602001808311611a9c57829003601f168201915b5050509183525050600882015460ff80821615156020808501919091526101009092041615156040808401919091526009840180548251818502810185019093528083526060909401939192909190830182828015611b4157602002820191906000526020600020905b81546001600160a01b03168152600190910190602001808311611b23575b50505050508152602001600a8201805480602002602001604051908101604052809291908181526020018280548015611b9957602002820191906000526020600020905b815481526020019060010190808311611b85575b505050505081525050848481518110611bb457611bb461336f565b60200260200101819052508280611bca9061351a565b9350505b80611bd88161351a565b915050611748565b5080611beb8161351a565b91505061173b565b5090949350505050565b60606000805b600254811015611c4e576000818152602081905260409020546001600160a01b03808616911603611c3c5781611c388161351a565b9250505b80611c468161351a565b915050611c03565b506000816001600160401b03811115611c6957611c69612c20565b604051908082528060200260200182016040528015611ca257816020015b611c8f612a8f565b815260200190600190039081611c875790505b5090506000805b600254811015611bf3576000818152602081905260409020546001600160a01b038088169116036120f957600081815260208181526040918290208251610180810190935280546001600160a01b031683526001810180549192840191611d0f90613385565b80601f0160208091040260200160405190810160405280929190818152602001828054611d3b90613385565b8015611d885780601f10611d5d57610100808354040283529160200191611d88565b820191906000526020600020905b815481529060010190602001808311611d6b57829003601f168201915b50505050508152602001600282018054611da190613385565b80601f0160208091040260200160405190810160405280929190818152602001828054611dcd90613385565b8015611e1a5780601f10611def57610100808354040283529160200191611e1a565b820191906000526020600020905b815481529060010190602001808311611dfd57829003601f168201915b50505050508152602001600382018054611e3390613385565b80601f0160208091040260200160405190810160405280929190818152602001828054611e5f90613385565b8015611eac5780601f10611e8157610100808354040283529160200191611eac565b820191906000526020600020905b815481529060010190602001808311611e8f57829003601f168201915b505050505081526020016004820154815260200160058201548152602001600682018054611ed990613385565b80601f0160208091040260200160405190810160405280929190818152602001828054611f0590613385565b8015611f525780601f10611f2757610100808354040283529160200191611f52565b820191906000526020600020905b815481529060010190602001808311611f3557829003601f168201915b50505050508152602001600782018054611f6b90613385565b80601f0160208091040260200160405190810160405280929190818152602001828054611f9790613385565b8015611fe45780601f10611fb957610100808354040283529160200191611fe4565b820191906000526020600020905b815481529060010190602001808311611fc757829003601f168201915b5050509183525050600882015460ff8082161515602080850191909152610100909204161515604080840191909152600984018054825181850281018501909352808352606090940193919290919083018282801561206c57602002820191906000526020600020905b81546001600160a01b0316815260019091019060200180831161204e575b50505050508152602001600a82018054806020026020016040519081016040528092919081815260200182805480156120c457602002820191906000526020600020905b8154815260200190600101908083116120b0575b5050505050815250508383815181106120df576120df61336f565b602002602001018190525081806120f59061351a565b9250505b806121038161351a565b915050611ca9565b6060806060806000805b6002548110156121b65760005b6000828152600160205260409020548110156121a357600082815260016020526040902080546001600160a01b038a169190839081106121645761216461336f565b60009182526020909120600590910201546001600160a01b031603612191578261218d8161351a565b9350505b8061219b8161351a565b915050612122565b50806121ae8161351a565b915050612115565b506000816001600160401b038111156121d1576121d1612c20565b60405190808252806020026020018201604052801561220a57816020015b6121f7612a8f565b8152602001906001900390816121ef5790505b5090506000826001600160401b0381111561222757612227612c20565b604051908082528060200260200182016040528015612250578160200160208202803683370190505b5090506000836001600160401b0381111561226d5761226d612c20565b604051908082528060200260200182016040528015612296578160200160208202803683370190505b5090506000846001600160401b038111156122b3576122b3612c20565b6040519080825280602002602001820160405280156122dc578160200160208202803683370190505b5090506000805b60025481101561287f5760005b60008281526001602052604090205481101561286c57600082815260016020526040902080546001600160a01b038f169190839081106123325761233261336f565b60009182526020909120600590910201546001600160a01b03160361285a57600082815260208181526040918290208251610180810190935280546001600160a01b03168352600181018054919284019161238c90613385565b80601f01602080910402602001604051908101604052809291908181526020018280546123b890613385565b80156124055780601f106123da57610100808354040283529160200191612405565b820191906000526020600020905b8154815290600101906020018083116123e857829003601f168201915b5050505050815260200160028201805461241e90613385565b80601f016020809104026020016040519081016040528092919081815260200182805461244a90613385565b80156124975780601f1061246c57610100808354040283529160200191612497565b820191906000526020600020905b81548152906001019060200180831161247a57829003601f168201915b505050505081526020016003820180546124b090613385565b80601f01602080910402602001604051908101604052809291908181526020018280546124dc90613385565b80156125295780601f106124fe57610100808354040283529160200191612529565b820191906000526020600020905b81548152906001019060200180831161250c57829003601f168201915b50505050508152602001600482015481526020016005820154815260200160068201805461255690613385565b80601f016020809104026020016040519081016040528092919081815260200182805461258290613385565b80156125cf5780601f106125a4576101008083540402835291602001916125cf565b820191906000526020600020905b8154815290600101906020018083116125b257829003601f168201915b505050505081526020016007820180546125e890613385565b80601f016020809104026020016040519081016040528092919081815260200182805461261490613385565b80156126615780601f1061263657610100808354040283529160200191612661565b820191906000526020600020905b81548152906001019060200180831161264457829003601f168201915b5050509183525050600882015460ff808216151560208085019190915261010090920416151560408084019190915260098401805482518185028101850190935280835260609094019391929091908301828280156126e957602002820191906000526020600020905b81546001600160a01b031681526001909101906020018083116126cb575b50505050508152602001600a820180548060200260200160405190810160405280929190818152602001828054801561274157602002820191906000526020600020905b81548152602001906001019080831161272d575b50505050508152505087848151811061275c5761275c61336f565b602002602001018190525060016000838152602001908152602001600020818154811061278b5761278b61336f565b906000526020600020906005020160040160009054906101000a900460ff168684815181106127bc576127bc61336f565b91151560209283029190910182015260008381526001909152604090208054829081106127eb576127eb61336f565b906000526020600020906005020160040160019054906101000a900460ff1685848151811061281c5761281c61336f565b602002602001019015159081151581525050818484815181106128415761284161336f565b6020908102919091010152826128568161351a565b9350505b806128648161351a565b9150506122f0565b50806128778161351a565b9150506122e3565b50939a92995090975095509350505050565b600160205281600052604060002081815481106128ad57600080fd5b6000918252602090912060059091020180546001820180546001600160a01b0390921694509192506128de90613385565b80601f016020809104026020016040519081016040528092919081815260200182805461290a90613385565b80156129575780601f1061292c57610100808354040283529160200191612957565b820191906000526020600020905b81548152906001019060200180831161293a57829003601f168201915b50505050509080600201805461296c90613385565b80601f016020809104026020016040519081016040528092919081815260200182805461299890613385565b80156129e55780601f106129ba576101008083540402835291602001916129e5565b820191906000526020600020905b8154815290600101906020018083116129c857829003601f168201915b5050505050908060030180546129fa90613385565b80601f0160208091040260200160405190810160405280929190818152602001828054612a2690613385565b8015612a735780601f10612a4857610100808354040283529160200191612a73565b820191906000526020600020905b815481529060010190602001808311612a5657829003601f168201915b5050506004909301549192505060ff8082169161010090041686565b60405180610180016040528060006001600160a01b031681526020016060815260200160608152602001606081526020016000815260200160008152602001606081526020016060815260200160001515815260200160001515815260200160608152602001606081525090565b60008060408385031215612b1057600080fd5b50508035926020909101359150565b600060208284031215612b3157600080fd5b5035919050565b6000815180845260005b81811015612b5e57602081850181015186830182015201612b42565b506000602082860101526020601f19601f83011685010191505092915050565b6001600160a01b038b16815261014060208201819052600090612ba38382018d612b38565b90508281036040840152612bb7818c612b38565b90508281036060840152612bcb818b612b38565b90508860808401528760a084015282810360c0840152612beb8188612b38565b905082810360e0840152612bff8187612b38565b94151561010084015250509015156101209091015298975050505050505050565b634e487b7160e01b600052604160045260246000fd5b600082601f830112612c4757600080fd5b81356001600160401b0380821115612c6157612c61612c20565b604051601f8301601f19908116603f01168101908282118183101715612c8957612c89612c20565b81604052838152866020858801011115612ca257600080fd5b836020870160208301376000602085830101528094505050505092915050565b600080600080600080600080610100898b031215612cdf57600080fd5b8835975060208901356001600160401b0380821115612cfd57600080fd5b612d098c838d01612c36565b985060408b0135915080821115612d1f57600080fd5b612d2b8c838d01612c36565b975060608b0135915080821115612d4157600080fd5b612d4d8c838d01612c36565b965060808b0135955060a08b0135945060c08b0135915080821115612d7157600080fd5b612d7d8c838d01612c36565b935060e08b0135915080821115612d9357600080fd5b50612da08b828c01612c36565b9150509295985092959890939650565b600081518084526020808501945080840160005b83811015612de95781516001600160a01b031687529582019590820190600101612dc4565b509495945050505050565b600081518084526020808501945080840160005b83811015612de957815187529582019590820190600101612e08565b600081518084526020808501808196508360051b8101915082860160005b85811015612f69578284038952815180516001600160a01b03168552610180868201518188880152612e7682880182612b38565b91505060408083015187830382890152612e908382612b38565b9250505060608083015187830382890152612eab8382612b38565b92505050608080830151818801525060a080830151818801525060c08083015187830382890152612edc8382612b38565b9250505060e08083015187830382890152612ef78382612b38565b9250505061010080830151612f0f8289018215159052565b5050610120828101511515908701526101408083015187830382890152612f368382612db0565b925050506101608083015192508682038188015250612f558183612df4565b9a87019a9550505090840190600101612e42565b5091979650505050505050565b602081526000612f896020830184612e24565b9392505050565b600080600080600080600060e0888a031215612fab57600080fd5b87356001600160401b0380821115612fc257600080fd5b612fce8b838c01612c36565b985060208a0135915080821115612fe457600080fd5b612ff08b838c01612c36565b975060408a013591508082111561300657600080fd5b6130128b838c01612c36565b965060608a0135955060808a0135945060a08a013591508082111561303657600080fd5b6130428b838c01612c36565b935060c08a013591508082111561305857600080fd5b506130658a828b01612c36565b91505092959891949750929550565b6000806000806080858703121561308a57600080fd5b8435935060208501359250604085013580151581146130a857600080fd5b915060608501356001600160401b038111156130c357600080fd5b6130cf87828801612c36565b91505092959194509250565b600080600080608085870312156130f157600080fd5b8435935060208501356001600160401b038082111561310f57600080fd5b61311b88838901612c36565b9450604087013591508082111561313157600080fd5b61313d88838901612c36565b9350606087013591508082111561315357600080fd5b506130cf87828801612c36565b60006020808301818452808551808352604092508286019150828160051b87010184880160005b8381101561322157888303603f19018552815180516001600160a01b031684528781015160c0898601819052906131c082870182612b38565b91505087820151858203898701526131d88282612b38565b915050606080830151868303828801526131f28382612b38565b60808581015115159089015260a094850151151594909701939093525050509386019390860190600101613187565b509098975050505050505050565b60006020828403121561324157600080fd5b81356001600160a01b0381168114612f8957600080fd5b600081518084526020808501945080840160005b83811015612de957815115158752958201959082019060010161326c565b60808152600061329d6080830187612e24565b82810360208401526132af8187613258565b905082810360408401526132c38186613258565b905082810360608401526132d78185612df4565b979650505050505050565b6001600160a01b038716815260c06020820181905260009061330690830188612b38565b82810360408401526133188188612b38565b9050828103606084015261332c8187612b38565b9415156080840152505090151560a090910152949350505050565b6020808252600e908201526d125b9d985b1a59081a9bd888125160921b604082015260600190565b634e487b7160e01b600052603260045260246000fd5b600181811c9082168061339957607f821691505b602082108103610ecc57634e487b7160e01b600052602260045260246000fd5b60208082526021908201527f427564676574206d757374206265206174206c6561737420302e3030312045546040820152600960fb1b606082015260800190565b601f82111561344057600081815260208120601f850160051c810160208610156134215750805b601f850160051c820191505b818110156105495782815560010161342d565b505050565b81516001600160401b0381111561345e5761345e612c20565b6134728161346c8454613385565b846133fa565b602080601f8311600181146134a7576000841561348f5750858301515b600019600386901b1c1916600185901b178555610549565b600085815260208120601f198616915b828110156134d6578886015182559484019460019091019084016134b7565b50858210156134f45787850151600019600388901b60f8161c191681555b5050505050600190811b01905550565b634e487b7160e01b600052601160045260246000fd5b60006001820161352c5761352c613504565b5060010190565b8181038181111561354657613546613504565b9291505056fea2646970667358221220e76e2a56a3010ee9eb699d77294e1210742c7352acfbd9de0634808d25e0355064736f6c63430008110033",
  "immutableReferences": {},
  "source": "// SPDX-License-Identifier: MIT\r\npragma solidity ^0.8.0;\r\n\r\ncontract FreelanceMarketplace {\r\n\r\n    struct Job {\r\n        address jobPoster;\r\n        string title;\r\n        string shortDescription;\r\n        string detailedDescription;\r\n        uint256 budget;\r\n        uint256 deadline;\r\n        string image;\r\n        string workUrl;\r\n        bool isCompleted;\r\n        bool isApproved;\r\n        address[] applicants;\r\n        uint256[] applicationIndexes;\r\n    }\r\n\r\n    struct Application {\r\n        address applicant;\r\n        string name;\r\n        string previousWorkLink;\r\n        string projectLink;\r\n        bool isReviewed;\r\n        bool isAccepted;\r\n    }\r\n\r\n    mapping(uint256 => Job) public jobs;\r\n    mapping(uint256 => Application[]) public jobApplications;\r\n    \r\n    uint256 public numberOfJobs = 0;\r\n\r\n    // Function to post a job with a minimum budget of 0.001 ETH\r\n    function postJob(\r\n        string memory _title,\r\n        string memory _shortDescription,\r\n        string memory _detailedDescription,\r\n        uint256 _budget,\r\n        uint256 _deadline,\r\n        string memory _image,\r\n        string memory _workUrl\r\n    ) public payable returns (uint256) {\r\n        // Ensure the budget is at least 0.001 ETH (1 * 10^15 wei)\r\n        require(_budget >= 0.001 ether, \"Budget must be at least 0.001 ETH\");\r\n        require(_deadline > block.timestamp, \"Deadline must be in the future\");\r\n\r\n        Job storage newJob = jobs[numberOfJobs];\r\n        newJob.jobPoster = msg.sender;\r\n        newJob.title = _title;\r\n        newJob.shortDescription = _shortDescription;\r\n        newJob.detailedDescription = _detailedDescription;\r\n        newJob.budget = _budget;\r\n        newJob.deadline = _deadline;\r\n        newJob.image = _image;\r\n        newJob.workUrl = _workUrl;\r\n        newJob.isCompleted = false;\r\n        newJob.isApproved = false;\r\n\r\n        numberOfJobs++;\r\n        return numberOfJobs - 1;\r\n    }\r\n\r\n    // Function to apply for a job\r\n    function applyForJob(\r\n        uint256 _jobId,\r\n        string memory _name,\r\n        string memory _previousWorkLink,\r\n        string memory _projectLink\r\n    ) public {\r\n        require(_jobId < numberOfJobs, \"Invalid job ID\");\r\n\r\n        Application memory application = Application({\r\n            applicant: msg.sender,\r\n            name: _name,\r\n            previousWorkLink: _previousWorkLink,\r\n            projectLink: _projectLink,\r\n            isReviewed: false,\r\n            isAccepted: false\r\n        });\r\n\r\n        jobApplications[_jobId].push(application);\r\n        jobs[_jobId].applicants.push(msg.sender);\r\n        jobs[_jobId].applicationIndexes.push(jobApplications[_jobId].length - 1);\r\n    }\r\n\r\n    // Function to review an applicant's work\r\n    function reviewWork(\r\n        uint256 _jobId,\r\n        uint256 _applicationIndex,\r\n        bool _isAccepted,\r\n        string memory _workUrl\r\n    ) public {\r\n        require(_jobId < numberOfJobs, \"Invalid job ID\");\r\n        require(_applicationIndex < jobApplications[_jobId].length, \"Invalid application index\");\r\n        require(jobs[_jobId].jobPoster == msg.sender, \"Only job poster can review\");\r\n\r\n        Application storage application = jobApplications[_jobId][_applicationIndex];\r\n        require(!application.isReviewed, \"Application already reviewed\");\r\n\r\n        if (_isAccepted) {\r\n            jobs[_jobId].workUrl = _workUrl;\r\n            jobs[_jobId].isCompleted = true;\r\n            jobs[_jobId].isApproved = true;\r\n            application.isAccepted = true;\r\n\r\n            // Transfer payment to freelancer (assuming budget is available)\r\n            (bool sent, ) = payable(application.applicant).call{value: jobs[_jobId].budget}(\"\");\r\n            require(sent, \"Payment failed\");\r\n        }\r\n\r\n        application.isReviewed = true;\r\n    }\r\n\r\n    // Function to get all jobs\r\n    function getJobs() public view returns (Job[] memory) {\r\n        Job[] memory allJobs = new Job[](numberOfJobs);\r\n        for (uint256 i = 0; i < numberOfJobs; i++) {\r\n            allJobs[i] = jobs[i];\r\n        }\r\n        return allJobs;\r\n    }\r\n\r\n    // Function to get applications for a specific job\r\n    function getApplications(uint256 _jobId) public view returns (Application[] memory) {\r\n        return jobApplications[_jobId];\r\n    }\r\n\r\n    // Function to get all jobs posted by a specific user (job poster)\r\n    function getJobsByPoster(address _jobPoster) public view returns (Job[] memory) {\r\n        uint256 jobCount = 0;\r\n        for (uint256 i = 0; i < numberOfJobs; i++) {\r\n            if (jobs[i].jobPoster == _jobPoster) {\r\n                jobCount++;\r\n            }\r\n        }\r\n\r\n        Job[] memory userJobs = new Job[](jobCount);\r\n        uint256 index = 0;\r\n        for (uint256 i = 0; i < numberOfJobs; i++) {\r\n            if (jobs[i].jobPoster == _jobPoster) {\r\n                userJobs[index] = jobs[i];\r\n                index++;\r\n            }\r\n        }\r\n\r\n        return userJobs;\r\n    }\r\n\r\n    // Function to get all jobs a freelancer has applied to\r\n    function getAppliedJobs(address _applicant) public view returns (Job[] memory) {\r\n        uint256 appliedJobCount = 0;\r\n        for (uint256 i = 0; i < numberOfJobs; i++) {\r\n            for (uint256 j = 0; j < jobApplications[i].length; j++) {\r\n                if (jobApplications[i][j].applicant == _applicant) {\r\n                    appliedJobCount++;\r\n                }\r\n            }\r\n        }\r\n\r\n        Job[] memory appliedJobs = new Job[](appliedJobCount);\r\n        uint256 index = 0;\r\n        for (uint256 i = 0; i < numberOfJobs; i++) {\r\n            for (uint256 j = 0; j < jobApplications[i].length; j++) {\r\n                if (jobApplications[i][j].applicant == _applicant) {\r\n                    appliedJobs[index] = jobs[i];\r\n                    index++;\r\n                }\r\n            }\r\n        }\r\n\r\n        return appliedJobs;\r\n    }\r\n\r\n    // Extended helper: get applied jobs along with review/accept status and job IDs for the given applicant\r\n    function getAppliedJobsWithStatus(address _applicant)\r\n        public\r\n        view\r\n        returns (Job[] memory, bool[] memory, bool[] memory, uint256[] memory)\r\n    {\r\n        uint256 appliedJobCount = 0;\r\n        for (uint256 i = 0; i < numberOfJobs; i++) {\r\n            for (uint256 j = 0; j < jobApplications[i].length; j++) {\r\n                if (jobApplications[i][j].applicant == _applicant) {\r\n                    appliedJobCount++;\r\n                }\r\n            }\r\n        }\r\n\r\n        Job[] memory appliedJobs = new Job[](appliedJobCount);\r\n        bool[] memory reviewed = new bool[](appliedJobCount);\r\n        bool[] memory accepted = new bool[](appliedJobCount);\r\n        uint256[] memory jobIds = new uint256[](appliedJobCount);\r\n\r\n        uint256 index = 0;\r\n        for (uint256 i = 0; i < numberOfJobs; i++) {\r\n            for (uint256 j = 0; j < jobApplications[i].length; j++) {\r\n                if (jobApplications[i][j].applicant == _applicant) {\r\n                    appliedJobs[index] = jobs[i];\r\n                    reviewed[index] = jobApplications[i][j].isReviewed;\r\n                    accepted[index] = jobApplications[i][j].isAccepted;\r\n                    jobIds[index] = i;\r\n                    index++;\r\n                }\r\n            }\r\n        }\r\n\r\n        return (appliedJobs, reviewed, accepted, jobIds);\r\n    }\r\n\r\n    function getJobBudget(uint256 jobId) public view returns (uint256) {\r\n    return jobs[jobId].budget;  // Assuming 'jobs' is a mapping containing the job details\r\n    }\r\n\r\n    function sendPaymentToApplicant(uint256 _jobId, uint256 _applicationIndex) public payable {\r\n        require(_jobId < numberOfJobs, \"Invalid job ID\");\r\n        require(_applicationIndex < jobApplications[_jobId].length, \"Invalid application index\");\r\n\r\n        Job storage job = jobs[_jobId];\r\n        Application storage application = jobApplications[_jobId][_applicationIndex];\r\n\r\n        require(job.jobPoster == msg.sender, \"Only job poster can send payment\");\r\n        require(application.isAccepted, \"Application is not accepted\");\r\n\r\n        uint256 amount = job.budget;\r\n        require(amount > 0, \"Invalid payment amount\");\r\n\r\n        // Transfer the payment to the freelancer's address\r\n        (bool sent, ) = payable(application.applicant).call{value: amount}(\"\");\r\n        require(sent, \"Payment failed\");\r\n    }\r\n\r\n    // Function to edit a job (only by job poster, and only if not completed/approved)\r\n    function editJob(\r\n        uint256 _jobId,\r\n        string memory _title,\r\n        string memory _shortDescription,\r\n        string memory _detailedDescription,\r\n        uint256 _budget,\r\n        uint256 _deadline,\r\n        string memory _image,\r\n        string memory _workUrl\r\n    ) public {\r\n        require(_jobId < numberOfJobs, \"Invalid job ID\");\r\n        Job storage job = jobs[_jobId];\r\n        \r\n        // Only job poster can edit\r\n        require(job.jobPoster == msg.sender, \"Only job poster can edit this job\");\r\n        \r\n        // Cannot edit if job is completed or approved\r\n        require(!job.isCompleted && !job.isApproved, \"Cannot edit completed or approved jobs\");\r\n        \r\n        // Validate budget is at least 0.001 ETH\r\n        require(_budget >= 0.001 ether, \"Budget must be at least 0.001 ETH\");\r\n        \r\n        // Validate deadline is in the future\r\n        require(_deadline > block.timestamp, \"Deadline must be in the future\");\r\n        \r\n        // Update job details\r\n        job.title = _title;\r\n        job.shortDescription = _shortDescription;\r\n        job.detailedDescription = _detailedDescription;\r\n        job.budget = _budget;\r\n        job.deadline = _deadline;\r\n        job.image = _image;\r\n        job.workUrl = _workUrl;\r\n    }\r\n\r\n    // Function to allow the contract to receive Ether\r\n    receive() external payable {}\r\n}\r\n",
  "sourcePath": "/app/contracts/FreelanceMarketplace.sol",
  "compiler": {
    "name": "solc",
    "version": "0.8.17+commit.8df45f5f.Emscripten.clang"
  },
  "schemaVersion": "3.4.16",
  "updatedAt": "2025-11-30T07:36:37.982Z",
  "devdoc": {
    "kind": "dev",
    "methods": {},
    "version": 1
  },
  "userdoc": {
    "kind": "user",
    "methods": {},
    "version": 1
  }
}